:020000040800F2
:10000000685500200D030008C32F0008F1270008E1
:10001000C12F0008670500083D3D000800000000F2
:100020000000000000000000000000004D02000879
:100030005106000800000000A9020008C9380008A5
:1000400027030008270300082703000827030008E8
:1000500027030008270300082703000827030008D8
:100060002703000853060008270300082703000899
:1000700027030008270300082703000827030008B8
:100080002703000827030008270300087505000858
:100090006905000827030008270300082703000854
:1000A00027030008A53900082703000827030008D4
:1000B0002703000827030008270300082703000878
:1000C0002703000827030008270300082703000868
:1000D0002703000827030008270300082703000858
:1000E0002703000827030008270300082703000848
:1000F0002703000827030008270300082703000838
:100100002703000827030008B13900082703000867
:100110002703000827030008BD390008270300084B
:100120002703000827030008C90500082703000863
:1001300027030008270300082703000827030008F7
:1001400027030008270300082703000827030008E7
:1001500027030008270300082703000827030008D7
:1001600027030008270300082703000827030008C7
:1001700027030008270300082703000800000000E9
:1001800027030008270300082703000827030008A7
:100190002703000827030008270300082703000897
:1001A00000000000000000002703000800F002F833
:1001B00000F03CF80AA090E8000C82448344AAF1C5
:1001C0000107DA4501D100F031F8AFF2090EBAE8C3
:1001D0000F0013F0010F18BFFB1A43F0010318477B
:1001E000D0520000F0520000103A24BF78C878C105
:1001F000FAD8520724BF30C830C144BF04680C602D
:10020000704700000023002400250026103A28BF74
:1002100078C1FBD8520728BF30C148BF0B60704778
:100220001FB505F0D5F81FBD10B510BD00F061F980
:100230001146FFF7F5FF03F02DFF00F07FF903B43F
:10024000FFF7F2FF03BC00F087F900002C4B1968A0
:100250000868B0E8F04F80F30988BFF36F8F4FF064
:10026000000080F311887047000000000848006813
:10027000006880F308884FF0000080F3148862B6AD
:1002800061B6BFF34F8FBFF36F8F00DF00BF00BFBA
:1002900008ED00E0DFF80C00016841F47001016036
:1002A000704700BF88ED00E0EFF30980BFF36F8F68
:1002B000134B1A681EF0100F08BF20ED108A20E9BA
:1002C000F04F106009B44FF0500080F31188BFF375
:1002D0004F8FBFF36F8F04F021FB4FF0000080F3CE
:1002E000118809BC19680868B0E8F04F1EF0100FBB
:1002F00008BFB0EC108A80F30988BFF36F8F704796
:1003000020000020EFF30580704700000948804777
:1003100009480047FEE7FEE7FEE7FEE7FEE7FEE7E7
:10032000FEE7FEE7FEE7FEE704480549054A064BFF
:100330007047000095390008AD010008684F0020A3
:1003400068550020685100206851002053EA020CD3
:1003500000F069802DE9F04B4FF00006002B1FBF25
:10036000B3FA83F503FA05F424FA05F65E4012BFEA
:100370001643B2FA82F502FA05F4C5F120051EBF54
:1003800022FA05FC44EA0C04203556EA044C4FEAF4
:10039000144418BF641C4FF000084FF0000990424D
:1003A00071EB030C39D3002919BFB1FA81F701FAB7
:1003B00007F6B0FA80F700FA07F6C7F120071EBF6C
:1003C00020FA07FC46EA0C062037B6FBF4FCA7EB44
:1003D0000507103F07F01F0BCBF120060CFA0BFBB3
:1003E0002CFA06F644BFB3460026202FA4BF5E4673
:1003F0004FF0000B5BEA060C08BF4FF0010B19EB46
:100400000B09ABFB027C48EB0608C01B06FB02CCC9
:100410000BFB03CC71EB0C01C1E70B4602464146D6
:100420004846BDE8F08B13B54FF000004FF00001D7
:10043000AFF30080BDE81C40704710B5203AC0F013
:100440000B80B1E81850203AA0E81850B1E81850D5
:10045000A0E81850BFF4F5AF5FEA027C24BFB1E812
:100460001850A0E8185044BF18C918C0BDE8104083
:100470005FEA827C24BF51F8043B40F8043B08BF8C
:100480007047D20728BF31F8023B48BF11F8012B53
:1004900028BF20F8023B48BF00F8012B70474FF0FF
:1004A000000200B5134694469646203922BFA0E8C4
:1004B0000C50A0E80C50B1F12001BFF4F7AF0907D0
:1004C00028BFA0E80C5048BF0CC05DF804EB8900C1
:1004D00028BF40F8042B08BF704748BF20F8022B04
:1004E00011F0804F18BF00F8012B7047704770471C
:1004F0007047754600F02CF8AE4605006946534635
:1005000020F00700854618B020B5FFF70DFFBDE8C5
:1005100020404FF000064FF000074FF000084FF06A
:10052000000B21F00701AC46ACE8C009ACE8C009FB
:10053000ACE8C009ACE8C0098D46704710B5044668
:10054000AFF300802046BDE81040FFF778BE000002
:1005500000487047044F002001491820ABBEFEE759
:10056000260002007047FEE7014800F0F2B90000E3
:1005700048030020014800F0ECB9000048030020C7
:1005800038B50E4C4FF4007525600025A560E56078
:10059000082525610A4C050A25706070080AA070BC
:1005A000E170100A20716271180AA071E3716B4644
:1005B00022460249034800F063F838BDD0420020CB
:1005C0008900002048030020014800F0F3BB000030
:1005D000F004002001681823CAB2103AB2FBF3F20B
:1005E000054B6FF30901032A9B5CC36500D9091D04
:1005F00081650846704700005454000810B5014654
:1006000000208B698A6A4FF0C07453B1B3F5005F64
:1006100015D072B1012A0CD0022A0AD0032A09D1BE
:1006200004E01AB1012A06D0022A03D1C96AC9011D
:1006300000D5012010BDC96AA142FAD010BD002A20
:10064000F7D0012AF2D0022AF3D0032AF3D010BD4A
:100650007047082000F00EBD72B6FEE790F820202B
:10066000012A07D0022A05D0416A41F48021416263
:1006700001207047006842690A43426100207047C8
:10068000F0B590F820500468A468012D05D0022D23
:1006900003D0416A41F480215DE014F0406F01D144
:1006A000E50055D5C4F30164022C03D9416A41F435
:1006B000000150E00125A5401D608D684FF4C07316
:1006C0009DB1CE6835434E6845EAC605066803EB22
:1006D0000417F5514FF4C275076805EB04150E6950
:1006E0007E51097D012905D009E00E88CD6845EAD3
:1006F0004655EBE701684E5946F480764E51117924
:10070000D579567941EA056195792D0445EA0625A2
:1007100029434FF4C676056806EB0416A9511178F3
:10072000D57841EA0561957852782D0445EA022290
:1007300011434FF4C475026805EB0415515100686C
:1007400003EB0411425842F0010242500020F0BD78
:10075000416A41F4001141620120F0BD10B590F8EA
:100760002020012A07D0022A05D0416A41F48021C5
:100770004162012010BD3B48D0F8002242F0010246
:10078000C0F80022D0F8002222F47C52C0F80022E7
:10079000D0F800224B6A42EA0322C0F800220A7D08
:1007A00002F01F0301229A40D0F81C329343C0F894
:1007B0001C32CB69B3B9D0F80C329343C0F80C3279
:1007C0008C894B6864F31F434C6900EBC404C4F884
:1007D00040320C890B6864F31F434C6900EBC4047E
:1007E000C4F84432CB69012B16D1D0F80C32134334
:1007F000C0F80C320C884B6864F31F434C6900EB63
:10080000C404C4F840320C89CB6864F31F434C69BC
:1008100000EBC404C4F844328B69002BD0F80432D6
:100820000ED01343C0F804320B69002BD0F81432F9
:1008300008D01343C0F81432096A012904D008E033
:100840009343EFE79343F5E7D0F81C121143C0F848
:100850001C12D0F8001221F00101C0F80012002093
:1008600010BD000000640040704730B590F8204093
:10087000012C05D0022C03D0416A41F480215DE0B7
:100880000468002955D02469A40754D04FF4D874C3
:10089000056804EB01142D5915F0040595600568F1
:1008A0002D594ED0ED08556005682C5904F002040E
:1008B000D4604FF4DA74056804EB01142D5905F087
:1008C0000F05156105682D59C5F307259561056864
:1008D0002C59240C54614FF4DC72046802EB0112B1
:1008E000A4581C700468A458240A5C700468A458B6
:1008F000240C9C700468A258120EDA704FF4DE7259
:10090000046802EB0112A4581C710468A458240A5C
:100910005C710468A458240C9C710468A258120EDF
:10092000DA71006881B1016941F0200101610020A4
:1009300030BDE468A8E7416A41F40011416201203A
:1009400030BD6D0D1560AFE7C16841F02001C16099
:10095000EDE72DE9F05F0546006800244669D0F810
:1009600004908768D0F80CB0D0F810A0D0F81880A8
:10097000F10748D0F90714D001218160B80703D5E9
:10098000284600F010FA0CE0780702D54FF4006416
:1009900007E0380702D54FF4805402E0284600F003
:1009A00001FAF80516D529684FF480708860B805FB
:1009B00003D5284600F0F9F90CE0780502D544F497
:1009C000005407E0380502D544F4804402E028468C
:1009D00000F0EAF9F80316D529684FF480308860F2
:1009E000B80303D5284600F0E2F90CE0780302D5FD
:1009F00044F4004407E0380302D544F4803402E0B4
:100A0000284600F0D3F9300707D55FEACB6004D55C
:100A10002968102044F40074C86070074FF008077C
:100A200007D55FEA0B7004D52868C760284600F038
:100A30005FF9B00706D52868C068800702D028464D
:100A400000F058F9700607D55FEACA6004D5296836
:100A5000102044F480640861B00607D55FEA0A708C
:100A600004D528680761284600F06CF9F00606D521
:100A700028680069800702D0284600F064F9B003B6
:100A800008D55FEAC96005D5296810204860284666
:100A900000F05AF9F00307D55FEA097004D5286819
:100AA0004760284600F084F9300446D55FEA497073
:100AB00040D5F00504D55FEAC87001D044F00104C8
:100AC000B00504D55FEA887001D544F002047005D2
:100AD00004D55FEA487001D544F00404300529D5F7
:100AE00018F0700F26D008F07000402815D006DCF2
:100AF000102809D020280AD0302816D10AE0502822
:100B00000ED0602811D10EE044F008040DE044F04E
:100B100010040AE044F0200407E044F0400404E03C
:100B200044F0800401E044F480742868816921F075
:100B300070018161296804204860002C05D0686A32
:100B4000204368622846FFF78FFEBDE8F09F70B52E
:100B5000040003D094F8200010B104E0012070BD1F
:100B6000204600F081F82068016841F00101016031
:100B700000F0B0FB0546052604E000F0ABFB401B8F
:100B80000A2811D820684068C007F6D0206801689C
:100B900021F00201016000F09DFB05460BE000F032
:100BA00099FB401B0A2806D9606A40F40030606255
:100BB00084F82060D2E7206840688007EFD4207E68
:100BC0000128206801683DD021F080010160607E2D
:100BD00001282068016838D021F040010160A07E22
:100BE00001282068016833D021F020010160E07EF7
:100BF0000128206801682ED041F010010160207F9B
:100C000001282068016829D021F008010160607F77
:100C100001282068016824D021F004010160D4E992
:100C200002010843D4E90412114308436168491ED4
:100C300008432168C86100206062012084F8200018
:100C4000002070BD41F08001C0E741F04001C5E7E0
:100C500041F02001CAE721F01001CFE741F008017F
:100C6000D4E741F00401D9E710B586B00446142159
:100C70006846FFF714FC1B49206888422FD11A48A8
:100C8000016841F000710160006800F0007005909B
:100C900015481038016841F0080101600068022120
:100CA00000F0080005900320CDE900010121CDE905
:100CB00002100920049069460C4800F0E7F9002270
:100CC0000521132000F068FE132000F057FE0022DB
:100CD0000521142000F060FE142000F04FFE06B045
:100CE00010BD00000064004040380240000C02408B
:100CF0007047000000B589B007AB6A4600210E4876
:100D0000FFF7B3FD0098A0F20120042812D80B4988
:100D1000C0B2087000EB8001094800EB410230F8D6
:100D200011301381BDF81E305BBA53809DF822202C
:100D300020F8112009B000BD4803002088000020E1
:100D400088420020704770477047000070B5044625
:100D500090F82000012804D0606A40F4002060620E
:100D600018E0022084F820002068016821F00101C9
:100D7000016000F0AFFA05460EE000BF00F0AAFAED
:100D8000401B0A2808D9606A40F4003060620520E0
:100D900084F82000012070BD20684068C007EDD1B4
:100DA000606270BD7047704770477047704770470A
:100DB000704700002DE9F84304464FF00009CDF8D4
:100DC000009063484FF41651A56D0068B0FBF1F731
:100DD0002E6894F85C10082000FA01F131420FD01F
:100DE00021680A6852070BD50A6822F004020A60DB
:100DF00094F85C108840A860606D40F00100606568
:100E000094F85C104FF0010808FA01F0304208D065
:100E100021684969090604D5A860606D40F00200A8
:100E2000606594F85C1004208840304208D0216846
:100E30000968890704D5A860606D40F0040060650A
:100E400094F85C1010208840304218D0216809685E
:100E5000090714D5A86020680168490304D5006813
:100E6000000308D5A16C07E00168C90503D4016837
:100E700021F008010160216C09B12046884794F8EF
:100E80005C1020208840304231D021680968C906B2
:100E90002DD5A86094F8350005282068016806D093
:100EA000490347D5006800031DD4616C1CE021F0A4
:100EB000160101602068416921F080014161206CC8
:100EC00008B9A06C20B12068016821F00801016018
:100ED00094F85C103F208840A86084F8358084F83E
:100EE0003490216D1FE0E16B09B120468847606DA9
:100EF00000282BD0606DC00714D0052084F8350081
:100F00002068016821F0010101600098401C0090F8
:100F1000B84203D820680068C007F6D184F835804D
:100F200084F83490E16C002910D001B02046BDE86F
:100F3000F04308470168C905D5D4016821F01001C4
:100F4000016084F8358084F83490CCE7BDE8F883FC
:100F50001C0000202DE9F041044600F0BBF90646D4
:100F60005CB1022084F83500002584F834502068F4
:100F7000016821F0010101600DE00120BDE8F08170
:100F800000F0A8F9801B052805D920206065032002
:100F900084F83500F2E720680068C007F0D12268C5
:100FA000116820480140D4E901031843D4E903360D
:100FB0003343184363691843A3691843E36918432B
:100FC000236A18430843616A042903D1D4E90B1347
:100FD00019430843106020684069666A20F00701E1
:100FE00030460E43012704280CD1A06A0643E06A6C
:100FF00040B12046FFF702FB20B14020606584F835
:101000003570BAE7206846612046FFF7E3FA94F8A6
:101010005C203F2191408160656584F83570002037
:10102000ACE700003F8010F070B5044600F052F9C4
:101030000546601C02D004480078044400F04AF9D8
:10104000401BA042FAD370BD1000002010B5082844
:101050000BD1064802F0F4FF0548F7EE000A90EDC8
:10106000000A30EE200A80ED000A10BDF84E002084
:10107000F0000020044910B50A68024202D008605E
:10108000FFF7E4FF10BD0000143C01402DE9F84FCC
:10109000DFF8F8A10022012403254FF00F090AF11F
:1010A000040BAAF1040E00BF0B6804FA02F63340E9
:1010B000B34270D10F7907F00307012F01D0022F3F
:1010C00016D187684FEA420805FA08FC27EA0C07A0
:1010D000D1F80CC00CFA08FC4CEA070CC0F808C0A8
:1010E0004768B7430E79C6F3001696403E43466004
:1010F0000E79F643B6070AD0C7684FEA420C05FAE4
:101100000CF6B7438E6806FA0CF63E43C6600E79BD
:1011100006F00306022E10D1D60800EB8608D8F898
:10112000206057074FEAD76C09FA0CF7BE430F69E6
:1011300007FA0CF73743C8F8207006684FEA420CEC
:1011400005FA0CF7BE430F7907F0030707FA0CF70F
:10115000374307604E6816F4403F1CD04C4E37684A
:1011600047F480473760366822F0030706F480466C
:101170000096484E07EB060CDCF8086897073F0F0F
:1011800009FA07F826EA0806DFF80C81404503D182
:101190004FF0000841E072E0DFF80081404502D1E5
:1011A0004FF0010839E0DFF8F880404502D14FF0F8
:1011B000020832E0DFF8EC80404502D14FF003082E
:1011C0002BE0DFF8E480404502D14FF0040824E032
:1011D000DFF8D880404502D14FF005081DE0DFF868
:1011E000D080404502D14FF0060816E0DFF8C480F9
:1011F000404502D14FF007080FE0DFF8BC804045C2
:1012000002D14FF0080808E0DFF8B080404502D175
:101210004FF0090801E04FF00A0808FA07F848EA19
:101220000608CCF80888DAF800605746D1F804C000
:101230009E435FEACC2C00D51E433E60DBF8006085
:101240005F46D1F804C09E435FEA8C2C00D51E4354
:101250003E60DEF800607746D1F804C09E435FEA46
:101260008C3C00D51E433E60084F083F3E68D1F8D5
:1012700004C09E435FEACC3C00D51E433E60521C36
:10128000102AFFF411AFBDE8F88F0000083C0140C0
:101290004438024000300140000002400004024097
:1012A00000080240000C02400010024000140240FE
:1012B00000180240001C02400020024000240240AE
:1012C0000069084000D0012070470AB18161704771
:1012D0000904FBE701488068704700001000002007
:1012E00090F83D20202A01D002207047242280F867
:1012F0003D200268136823F0010313600268536AFB
:1013000023F0100353620268536A0B43536201686F
:101310000A6842F001020A60202180F83D10002096
:10132000704790F83D20202A01D0022070472422E7
:1013300080F83D200268136823F0010313600368FE
:101340005A6A22F00F020A4391B2596201680A6890
:1013500042F001020A60202180F83D100020704711
:1013600070B5040025D094F83D00002520B984F81C
:101370003C50204600F04CFA242084F83D002068C0
:10138000016821F0010101602068016841F4004119
:1013900001602068016821F40041016000F020FC38
:1013A0004D4A6168914201D84C4900E04C4988425D
:1013B00001D2012070BD4B492368B0FBF1F15E689A
:1013C00026F03F060E435E606368934206D94FF4F1
:1013D000967359434FF47A73B1FBF3F12368491CB8
:1013E0001E6A26F03F06314319626168914210D8A7
:1013F0004900401EB0FBF1F2521CC2F30B02042A5A
:1014000001D2042022E0B0FBF1F0401CC0F30B003D
:101410001CE0A268F2B301EBC10303EB0116431E0B
:10142000B3FBF6F35B1C43F480431B0549D092B336
:1014300001EBC10202EB0111401EB0FBF1F0401CB8
:10144000C0F30B0040F4804040F400402168CA69BA
:101450004CF6FF739A431043C861D4E90710014367
:101460002068026822F0C00211430160D4E9030140
:1014700001432068826848F2FF339A431143816038
:10148000D4E9050108432168CA6822F0FF0210432D
:10149000C86001E00EE016E02068016841F001013B
:1014A00001602564202084F83D00256384F83E50C7
:1014B000002070BD01EB4106431EB3FBF6F35B1C3D
:1014C000B3E70120C2E701EB4101401EB0FBF1F0A0
:1014D000401CC0F30B00B7E7A086010080841E000B
:1014E00000093D0040420F002DE9FF4F83B09A46AE
:1014F000DDE9119793460446DDF84080FFF7EAFEE8
:10150000054694F83D00202870D119230122714925
:101510002046009501F07CFA0028F5D194F83C00B3
:10152000012863D0012084F83C0020680168C907C5
:1015300003D1016841F0010101602068016821F4D4
:1015400000610160222084F83D00402084F83E00C4
:1015500000262664C4F82480A4F82A90608D208593
:101560005D48E062CDE9007553465A46204604992D
:1015700001F056F900287CD1208DD0B1012821D06E
:101580000228206824D0416980690090208D0328BA
:1015900069D801282BD0514902283B464FF0000260
:1015A000009559D08846204601F032FA002860D1D3
:1015B0003CE02068416981690091016841F4007153
:1015C000016077E02068016821F480610160F0E744
:1015D000016821F4806101602068016841F40061C4
:1015E0000160206841698069009063E06FE02A46ED
:1015F0003946204601F08BFA98BB20680069616A81
:1016000008704EE02068016841F4007101602068B4
:101610000069616A0870606A401C6062218D491E21
:101620002185618D491E6185216838E02068016847
:1016300021F48061016020680069616A0870606A55
:10164000401C6062208D401E2085608D401E60859C
:101650003B46002241460095204601F0D9F900B9E9
:10166000D0E706E0FFE72A463946204601F04FFA68
:1016700018B1012007B0BDE8F08F20680069616AE9
:101680000870606A401C6062218D491E2185618D51
:10169000491E618521684A69D24352070AD4096903
:1016A0000170606A401C6062208D401E2085608D44
:1016B000401E6085208D00287FF468AF202084F8CC
:1016C0003D0084F83E6084F83C600020D2E70220B0
:1016D000D0E70000020010000000FFFF040001003E
:1016E0002DE9FF4F83B09A46DDE9119793460446F2
:1016F000DDF84080FFF7EEFD054694F83D00202818
:101700007FD11923012240492046009501F080F93C
:10171000002876D194F83C00012872D0012084F88A
:101720003C0020680168C90703D1016841F001014C
:1017300001602068016821F400610160212084F8C3
:101740003D00402084F83E0000262664C4F8248032
:10175000A4F82A90608D20852C48E062CDE90075C0
:1017600053465A462046049901F0D8F870B930E043
:101770002A463946204601F0FDF958B1206C04286C
:1017800004D12068016841F400710160012007B0B4
:10179000BDE8F08F606A216800780861606A401CCB
:1017A0006062218D491E89B22185628D521E62853B
:1017B00022685369DB435B070BD469B10078106181
:1017C000606A401C6062208D401E2085608D401E36
:1017D0006085208D0028CBD12A463946204601F06D
:1017E000F1F80028CAD154F83D0B016841F40071AA
:1017F0000160202004F81E09E67766770020C6E71E
:10180000FFE70220C3E70000020010000000FFFF16
:1018100010B586B0044614216846FEF740FE18490C
:101820002068884229D1174C0021206840F400101C
:101830002060206800F400100590124810380268FB
:1018400042F002020260006800F0020005904FF4CE
:10185000407000901220CDE9010103200390042084
:10186000049069460848FFF711FC206840F4001016
:101870002060206800F40010059006B010BD000044
:101880000054004040380240000402400248816891
:101890000278114481607047100000200B4810B599
:1018A000016841F400710160016841F480610160E8
:1018B000016841F480710160032000F08DF80F2071
:1018C00000F006F800F03EF8002010BD003C024099
:1018D00010B5014688B00022192000F05DF81920EB
:1018E00000F04CF813480024016841F00101016048
:1018F000006805A900F001000690684600F050F964
:1019000000F07EF90C494000B0FBF1F10C480B4AA5
:10191000491E026040F2E732C0E90324C0E9011425
:1019200000F044FC10B1012008B010BD044800F0E4
:1019300089FCF9E74438024040420F0000000140B2
:10194000500500200C4882B0016841F480410160DC
:10195000006800F4804000900748001F016841F0D3
:10196000805101600068002200F0805000900F213B
:10197000901E02B000F010B844380240002809DB85
:1019800000F01F02012191404009800000F1E02099
:10199000C0F8001170470000F0B40E4B1B680C46F5
:1019A000C3F30223C3F10705042D00D90425191D33
:1019B000072901D2002300E0DB1E012606FA05F10B
:1019C000491E214099409E40761E16403143F0BC8E
:1019D00002F0B5B90CED00E0064900F00702086816
:1019E0004FF6FF03184040EA0220034A1043086004
:1019F000704700000CED00E00000FA052DE9F84307
:101A00001748016841F0805101600068154F00F0EF
:101A10008050012600903E64FFF75CFC05464FF4C1
:101A20007A78114C05E000BFFFF754FC401B40459D
:101A30000DD86068C003F7D57E64FFF74BFC054600
:101A4000464607E0FFF746FC401BB04202D90320A0
:101A5000BDE8F88360688003F4D50020F8E7000053
:101A60004038024000000E42007000402DE9F0476F
:101A70000E46050065D0DFF81481D8F80000F7B2F3
:101A800000F00F00B04207D288F80070D8F80000CC
:101A900000F00F00B04254D128683D4C810712D5A8
:101AA000400703D5206840F4E05020602878000704
:101AB00003D5206840F4604020602068A96820F0C9
:101AC000F000084320602878C0072DD030496868AE
:101AD0000839012812D0022813D0032811D0096830
:101AE000890700292DDA216821F0030101432160D3
:101AF000FFF7F0FB814641F2883A0EE0096889035E
:101B0000EFE709688901ECE7FFF7E4FBA0EB0901C7
:101B1000514502D90320BDE8F0872068696800F0CC
:101B20000C00B0EB810FEFD1D8F80010404601F067
:101B30000F01B14207D90770006800F00F00B042F2
:101B400001D00120E7E72878400705D52068E9683B
:101B500020F4E050084320602878000706D520686C
:101B6000296920F4604040EAC100206000F058F884
:101B70002168084AC1F30311515CC8400649086056
:101B800006480068FFF7A4FE0020C4E7003C0240BE
:101B9000083802405C5400081C000020140000209B
:101BA0000F2202600C4A136803F0030343601368BA
:101BB00003F0F0038360136803F4E053C36012681A
:101BC0004FF4E05303EAD20202610448006800F0D7
:101BD0000F0008607047000008380240003C0240D7
:101BE0000448054900680968044AC1F38221515C30
:101BF000C84070471C000020083802406C540008A0
:101C00000448054900680968044AC1F34231515C3F
:101C1000C84070471C000020083802406C5400087F
:101C2000154810B5006810F00C02144813D0144980
:101C3000042A0FD0082A0ED10F4C241F22682368D3
:101C400002F03F025B0207D52068C0F38810A0FBBA
:101C5000010106E0084610BD2168C1F38811A1FB0F
:101C600000010023FEF772FB2168C1F30141491C0A
:101C70004900B0FBF1F010BD083802400024F40028
:101C8000001BB7002DE9F84F04006ED02078DFF874
:101C90004C93C007A9F104054AD009F1040001687A
:101CA000C1F38101012908D00068C0F38100022836
:101CB0000AD1D9F80000400206D52868800337D53C
:101CC00060680028E1D033E06068B0F5803F10D054
:101CD000B0F5A02F286810D020F480302860286844
:101CE00020F4802028606068A8B1FFF7F3FA064668
:101CF0000DE0286840F48030F4E740F4802028604C
:101D0000F7E700BFFFF7E6FA801B642873D828685E
:101D10008003F7D50CE0FFF7DDFA064605E000BFCB
:101D2000FFF7D8FA801B6428F0D828688003F7D41E
:101D30002078DFF8AC8280074FF0000A3ED5A74834
:101D4000001D016811F00C0F08D00068C0F381007D
:101D500002280BD1D9F80000400207D42868800778
:101D600016D5E068012800D112E033E1E068B8B18F
:101D70000120C8F80000FFF7ADFA064605E000BFF5
:101D8000FFF7A8FA801B0228C0D828688007F7D57B
:101D90002868216920F0F80040EAC10028600DE0C1
:101DA000C8F800A0FFF796FA064604E0FFF792FA9B
:101DB000801B02281FD828688007F7D420780007E6
:101DC00022D5864F87486169703771B10121016062
:101DD000FFF780FA064604E0FFF77CFA801B022832
:101DE00009D838688007F7D50EE0C0F800A0FFF7E3
:101DF00071FA064605E082E0FFF76CFA801B0228C4
:101E00007DD838688007F7D42078400768D5DFF898
:101E1000CCB100270BF13C0BDBF80000C0000BD469
:101E2000DBF8001041F08051CBF80010DBF8000027
:101E3000012700F0805000906B4E3068C00510D430
:101E4000306840F480703060FFF744FA009005E09D
:101E5000FFF740FA0099401A022850D83068C005B0
:101E6000F6D55E4EA0686C3601280FD00528306884
:101E700010D020F001003060306820F004003060A5
:101E8000A068B8B1FFF726FA00900FE0306840F084
:101E90000100F4E740F004003060F7E7FFF71AFABA
:101EA0000099411A41F28830814266D83068800733
:101EB000F4D50EE0FFF70EFA009007E0FFF70AFAFC
:101EC0000099411A41F28830814256D83068800723
:101ED000F4D42FB1DBF8001021F08051CBF80010C2
:101EE000A069C8B33D49091D0968C1F381010229F0
:101EF0004AD00228504607D0C8F8600000E03CE015
:101F0000FFF7E8F904463BE04746C8F86000FFF7F2
:101F1000E1F9064605E000BFFFF7DCF9801B022867
:101F20002BD828688001F7D4D4E907010843A16AB7
:101F30002E4A490802EB0141626A41EA82110843D4
:101F400094F82C1040EA0161C9F8001001203866AD
:101F5000FFF7C0F9044606E03EE000BFFFF7BAF91C
:101F6000001B022809D828688001F7D534E000BF9B
:101F7000FFF7B0F9001B022802D90320BDE8F88F53
:101F800028688001F4D427E00128F7D0D9F80000B0
:101F9000E26900F4800191421CD1226A00F03F0105
:101FA000914217D147F6C071626A0140B1EB821FBE
:101FB00010D1A26A4FF0FF3300F4403103EB52021C
:101FC000B1EB024F06D194F82C1000F07060B0EB2A
:101FD000016F01D00120D1E70020CFE70438024093
:101FE00000004742800E4742007000400000FFFFA3
:101FF00070B5040009D0606A002540B125616561B3
:10200000A56294F8510040B10CE0012070BD6068F9
:10201000B0F5827FF4D0E561F2E784F850502046B5
:1020200000F044F8022084F851002068016821F093
:1020300040010160A088218900F4827001F404410C
:102040000843A18901F400610843217C01F00201E9
:102050000843217D01F001010843218B01F4007147
:102060000843217F01F03801084394F8201001F063
:1020700080010843218D01F4005108432168086064
:10208000A069042101EA104094F8241001F0100125
:102090000843216848602068C16921F40061C1617A
:1020A0006565012084F85100002070BD10B586B030
:1020B000044614216846FEF7F2F914492068884264
:1020C00021D113480021026842F4801202600068A6
:1020D00000F4801005900E481438026842F0200287
:1020E0000260006800F0200005904FF460700090DE
:1020F0000220CDE9010103200390052004906946E8
:102100000448FEF7C3FF06B010BD000000500140B8
:1021100044380240001402407047704770B590F890
:102120003C20012A32D0012480F83C40022280F871
:102130003D2003685A689D6822F070060A683243A1
:102140005A60134B02689A4214D0B2F1804F11D0FA
:10215000104B9A420ED0104B9A420BD00F4B9A4222
:1021600008D00F4B9A4205D00E4B9A4202D00E4B2C
:102170009A4204D1496825F080031943916080F8A0
:102180003D40002180F83C10084670BD022070BD23
:10219000000001400004004000080040000C004026
:1021A00000040140004001400018004010B5040048
:1021B00003D094F83D0010B107E0012010BD0020CD
:1021C00084F83C00204600F01FF8022084F83D000F
:1021D000211D206801F0F8FB012084F8460084F8F6
:1021E0003E0084F83F0084F8400084F8410084F801
:1021F000420084F8430084F8440084F8450084F8E1
:102200003D00002010BD000008B500680B49884261
:1022100012D10B48016841F01001016000680022F2
:1022200000F01000009005213620FFF7B5FBBDE857
:1022300008403620FFF7A2BB08BD00000010004098
:102240004038024090F83D10012901D0012070472C
:10225000022180F83D100168CA6842F00102CA609C
:1022600000681149884214D0B0F1804F11D00F4955
:1022700088420ED00E4988420BD00E49884208D0C1
:102280000D49884205D00D49884202D00C49884248
:1022900004D1816801F00701062903D0016841F0EB
:1022A000010101600020704700000140000400406F
:1022B00000080040000C00400004014000400140C4
:1022C00000180040704770B50446006801694FF07F
:1022D0000005C943890715D4C168C943890711D4CA
:1022E000E91E01610120207720688069800720466F
:1022F00002D0FFF7E7FF04E000F0D4F8204600F03A
:1023000083F9257720680169C943490717D4C16853
:10231000C943490713D46FF00401016102202077FB
:102320002068806910F4407F204602D0FFF7CAFF82
:1023300004E000F0B7F8204600F066F92577206841
:102340000169C943090716D4C168C943090712D4F2
:102350006FF008010161042020772068C0698007C0
:10236000204602D0FFF7AEFF04E000F09BF82046C5
:1023700000F04AF9257720680169C943C90617D4D6
:10238000C168C943C90613D46FF010010161082068
:1023900020772068C06910F4407F204602D0FFF704
:1023A00091FF04E000F07EF8204600F02DF925773B
:1023B00020680169C943C90708D1C168C943C90771
:1023C00004D1891E0161204600F084F9206801696A
:1023D000C943090609D4C168C943090605D46FF089
:1023E000800101612046FFF797FE20680169C9431B
:1023F000490609D4C168C943490605D46FF04001B4
:102400000161204600F070F920680169C94389061E
:102410000BD4C168C943890607D46FF0200101615C
:102420002046BDE87040FFF778BE70BD30B587B07C
:10243000044614216846FEF732F81649206888429F
:1024400026D115480024016841F4807101600168BB
:1024500001F480710591016841F08001016000681C
:10246000022500F08000059001200090CDE9015484
:1024700069460A48CDE90345FEF708FEE8020090E8
:10248000CDE9015469460648CDE90345FEF7FEFD56
:1024900007B030BD000C0040303802400020024040
:1024A000001C0240704770B5044690F83C000026BE
:1024B0000D4601280FD0012084F83C006AB1042A9F
:1024C0001DD0082A2FD00C2A3FD00126002084F8E6
:1024D0003C00304670BD022070BD206801F0E6FA75
:1024E0002068816941F0080181612068816921F0DB
:1024F00004018161206881692A69114311E0206823
:1025000001F004FB2068816941F400618161206869
:10251000816921F480618161206881692A6941EAC9
:1025200002218161D2E7206801F026FB2068C169A1
:1025300041F00801C1612068C16921F00401C16155
:102540002068C1692A69114311E0206801F048FB45
:102550002068C16941F40061C1612068C16921F44A
:102560008061C1612068C1692A6941EA0221C161B3
:10257000ACE710B5040003D094F83D0010B107E0BB
:10258000012010BD002084F83C00204600F01EF819
:10259000022084F83D00211D206801F015FA012079
:1025A00084F8460084F83E0084F83F0084F8400038
:1025B00084F8410084F8420084F8430084F8440021
:1025C00084F8450084F83D00002010BD08B500687F
:1025D0000B49884212D10B48016841F008010160A3
:1025E0000068002200F00800009005213220FFF76B
:1025F000D3F9BDE808403220FFF7C0B908BD00009C
:10260000000C0040403802407047000010B50446FE
:10261000022249B104290ED0082913D094F84100B0
:10262000012816D0012010BD94F83E000128F9D1F0
:1026300084F83E200FE094F83F000128F2D184F89E
:102640003F2008E094F840000128EBD184F84020B6
:1026500001E084F841200122206801F019FA1649AE
:102660002068164A884201D0904203D1436C43F45B
:10267000004343642068884213D0B0F1804F10D0EB
:102680000F4988420DD00F4988420AD00E4988422E
:1026900007D0904205D00D49884202D00C498842AB
:1026A00004D1816801F00701062903D0016841F0D7
:1026B00001010160002010BD000001400004014044
:1026C0000004004000080040000C004000400140B1
:1026D0000018004000680349884201D1FFF7D6B8CE
:1026E0007047000000000140704770B5040004D03E
:1026F00094F83D00002510B106E0012070BD84F87B
:102700003C50204600F022F8242084F83D00206848
:10271000C16821F40051C160204601F089FA2068A7
:10272000016921F4904101612068416921F02A0189
:1027300041612068C16841F40051C16025642020D6
:1027400084F83D0084F83E00002070BD70B586B06E
:10275000064614216846FDF7A2FE204930688842EB
:102760003AD11F480025016841F01001016000685E
:1027700000F0100005901A481438016841F0020179
:1027800001600068694600F002000590C0200090DA
:102790000220CDE901050320039007200490114891
:1027A000FEF774FC114C104820604FF00060C4E943
:1027B00001054014C4E9035080106561C4E9065066
:1027C0004FF44030C4E908052046FEF7C3FB08B1CA
:1027D000FDF742FFB463A66306B070BD0010014070
:1027E000443802400004024040640240F0040020EB
:1027F000FEE701684A69D24352050FD46FF4806244
:102800004A61002140F8301F20224273817302691F
:1028100042F00402026101730120704700207047FA
:102820002DE9F84F0446006889460B9D01689846DB
:10283000174641F4806101602068016841F48071AD
:10284000016000954FF0011B0022594620460A9B6B
:1028500000F0DEF84FF4007A40B120680068C0054F
:1028600001D5C4F840A00320BDE8F88F216809F025
:10287000FE0008612B46284920460A9A00F0FCF821
:10288000F0BB20684169806900902A4620460A9979
:1028900000F070F940B1206C04283AD1206801683A
:1028A00041F40071016034E0FEB2B8F1010F09D0CB
:1028B0002168380A08612A4620460A9900F05AF928
:1028C0000028E8D1206806612A4620460A9900F0CF
:1028D00051F90028DFD12068016841F4807101605E
:1028E00000950022594620460A9B00F091F80028E6
:1028F000B3D1216809F0FF0040F00100086100E059
:1029000007E02B46044920460A9A00F0B5F8002853
:10291000AAD00120A8E70000020001002DE9F84339
:10292000044600680D46DDE908970168984616469A
:1029300041F4807101604B4600224FF001112046A6
:10294000009700F065F848B120680068C00502D51E
:102950004FF4007020640320BDE8F883216805F07F
:10296000FE0008613B464A461549204600F084F8BF
:1029700088B920684169806900903A4649462046F6
:1029800000F0F8F848B1206C042804D120680168F0
:1029900041F4007101600120DEE7F5B2B8F1010FEA
:1029A00009D02168300A08613A464946204600F0BD
:1029B000E1F80028E7D1206805610020CCE700009D
:1029C0000200010070B516460D4604460DE0204693
:1029D000FFF70FFF08B1012070BD681C05D0FEF79E
:1029E00079FC801BA84207D835B120684069C043F4
:1029F0004007ECD4002070BD002044F8300F2021A7
:102A00006173A073216941F0200121612073E2E725
:102A10002DE9F0471E4690460D460446C1F3074790
:102A2000DDF8209008E0701C06D0FEF753FCA0EB08
:102A30000900B0420FD876B12068012F18D0806904
:102A400025EA00000004000C14D000214145EAD022
:102A50000020BDE8F087002044F8300F202161738A
:102A6000A073216941F02001216120730120F0E76A
:102A70004069E5E70121E9E72DE9F0479A469146EB
:102A80000E46044600254FF02008C1F3074725E015
:102A900020684069C043400514D42068016841F4AF
:102AA0000071016021686FF480604861256384F8DB
:102AB0003D8084F83E50206C40F00400206484F88F
:102AC0003C501FE0B9F1FF3F08D0FEF703FCA0EB3C
:102AD0000A0149450CD8B9F1000F09D02068012F2F
:102AE00013D0806926EA00000004000C0BD0CFE769
:102AF00044F8305F84F80D80A573206940F0200011
:102B0000206125730120BDE8F0874069EAE72DE9DF
:102B1000F041002590460E460446202717E0406904
:102B2000C043C0060CD454F8301B6FF0100048614D
:102B300044F810596777A577206A2062257717E057
:102B4000FEF7C8FBA0EB0800B04208D83EB12068F1
:102B50004169C9434906E2D40020BDE8F08144F848
:102B6000305F6773A573206940F0200020612573F2
:102B70000120F2E770B516460D4604460DE02046EA
:102B8000FFF737FE08B1012070BD681C05D0FEF7C5
:102B9000A1FB801BA84207D835B120684069C0431B
:102BA0000006ECD4002070BD002044F8300F202136
:102BB0006173A073216941F0200121612073E2E774
:102BC0000F4810B50D4901600321416000214FF409
:102BD00040228160C0E90312416101760122427600
:102BE0008176C17602774177FDF7B1FF002803D0E7
:102BF000BDE81040FDF730BD10BD0000006400408E
:102C000048030020094808B5016841F480010160CB
:102C10000068002200F48000009005213A20FEF7B1
:102C2000BBFEBDE808403A20FEF7A8BE303802409F
:102C300010B59CB01C2216496846FDF7FEFB00212A
:102C4000684601F0B7FA134C11491C2220601C3170
:102C500007A8FDF7F2FB002107A801F0ABFA0C4929
:102C600060601C2238310EA8FDF7E7FB00210EA89A
:102C700001F0A0FA0649A0601C22543115A8FDF706
:102C8000DCFB002115A801F095FAE0601CB010BD36
:102C9000E4530008000000202DE9F04F87B0142114
:102CA0006846FDF7FCFB57480024016841F010011D
:102CB0000160016801F010010591016841F0020115
:102CC0000160016801F002010591016841F0010114
:102CD0000160016801F001010591016841F00801FE
:102CE0000160016801F008010591016841F48071FB
:102CF0000160016801F480710591016841F0800173
:102D00000160016801F080010591016841F0200136
:102D10000160016801F020010591016841F0400166
:102D200001600068384F00F0400005900022042147
:102D30003846FEF7CAFADFF8D48001220C2140465B
:102D4000FEF7C3FADFF8C890002240214846FEF79C
:102D5000BCFADFF8C0A000223E215046FEF7B5FACB
:102D6000DFF8B4B04FF40046002231465846FEF773
:102D7000ACFA0820009038010125CDE9010569462B
:102D80003846FEF783F904200090CDE901546946E6
:102D900038460394FEF77AF9E420CDE90004694649
:102DA0001E480294FEF772F90C200090CDE9015400
:102DB000694640460394FEF769F940200090CDE94A
:102DC0000154694648460394FEF760F93E2000909E
:102DD000CDE90154694650460394FEF757F9009631
:102DE000CDE90154694658460394FEF74FF9002295
:102DF00005210920FEF7D0FD0920FEF7BFFD07B031
:102E0000BDE8F08F3038024000100240001C024044
:102E10000014024000180240000C02400020024052
:102E2000144810B5124901601349416000214FF464
:102E300080428160C0E9031241618161C161016228
:102E4000FEF78EFA08B1FDF707FC00210948FEF7EE
:102E500047FA08B1FDF700FC00210648FEF761FAC9
:102E6000002803D0BDE81040FDF7F6BB10BD000000
:102E70000054004070030020801A06000F4810B56F
:102E80000D4901604FF48271416000218160C16091
:102E90004FF400720161C0E90512C1610162416233
:102EA00081620A21C162FFF7A3F8002803D0BDE8C0
:102EB0001040FDF7D1BB10BD00500140C4030020FD
:102EC00010B58AB0002407941C2168460894FDF7C9
:102ED000E6FA1A48184901605921C0E9011444F67C
:102EE0001F61C0E903148461FFF743FB08B1FDF7DC
:102EF000B3FB079407A911480894FFF70FF908B12D
:102F0000FDF7AAFB6020CDE900040294082269467F
:102F10000A480494FFF7C7FA08B1FDF79DFB0C229D
:102F200069460648FFF7BFFA08B1FDF795FB03486D
:102F3000FFF77CFA0AB010BD000C00401C04002012
:102F40001CB500240E4800940C49019401604FF414
:102F50007A71C0E9011459218461C160FFF726F933
:102F600008B1FDF779FB0094694605480194FFF725
:102F7000D5F8002801D0FDF76FFB1CBD0010004004
:102F8000640400200C4810B50A4901600B494160F7
:102F9000002181600C22C160C0E904128161C1611D
:102FA000FFF7A3FB002803D0BDE81040FDF754BB9A
:102FB00010BD000000100140AC040020A0860100FC
:102FC000FEE7FEE770B50D462DED088BB0EE409A9A
:102FD000F0EE609AB0EE418AF0EE618A90ED0E0B51
:102FE000044653EC102B51EC180B02F0D1F802D22E
:102FF00094ED0E8B12E094ED0E0B51EC100B01F0E2
:1030000055FE53EC182B02F0C3F807D294ED0E0BCB
:1030100051EC100B01F04AFE41EC180B012D02D0CF
:10302000002D72D0C3E053EC192B51EC180B02F0B9
:10303000E5F841EC180B84ED1A8B94ED200B53EC62
:10304000182B51EC100B01F06FFE41EC190B51ECF9
:10305000180B84ED209B94ED180B53EC102B02F011
:10306000CDF841EC1A0B53EC182B84ED22AB84ED18
:10307000188B94ED000B51EC100B01F08BFF94EDCD
:10308000020B41EC180B53EC192B51EC100B01F017
:1030900081FF94ED040B41EC190B53EC1A2B51EC0E
:1030A000100B01F077FF94ED240B41EC1B0B51EC5E
:1030B000100B01F007FE0AEE100A51EC190B01F09B
:1030C00001FE00EE100AF0EE4A0A00F048FE94ED10
:1030D000260B51EC100B01F0F5FD0AEE100A51EC35
:1030E000180B01F0EFFD00EE100AF0EE4A0A00F0B6
:1030F00036FE53EC192B51EC180B01F015FE41EC88
:10310000100B53EC1B2B4CE0FFE753EC192B51EC4D
:10311000180B02F073F841EC180B84ED1A8B94ED48
:10312000200B53EC182B51EC100B01F0FDFD41EC82
:103130001A0B51EC180B84ED20AB94ED180B53ECEB
:10314000102B02F05BF841EC190B53EC182B84EDBB
:10315000229B84ED188B94ED000B51EC100B01F0C9
:1031600019FF94ED020B41EC180B53EC1A2B51ECA8
:10317000100B01F00FFF94ED040B41EC1A0B53EC14
:10318000192B51EC100B01F005FF41EC190B53EC1E
:103190001A2B51EC180B01F0C7FD53EC192B41EC25
:1031A000100B51EC100B01F0BFFDC4E9100194EDC0
:1031B000081B94ED100B53EC112B51EC100B01F08C
:1031C000E7FF03D294ED080B84ED100B94ED080B90
:1031D00051EC100B01F06AFD94ED101B53EC112B18
:1031E00001F0D6FF07D294ED080B51EC100B01F063
:1031F0005DFDC4E9100194ED180B84ED160B94ED00
:103200001A0B84ED180BBDEC088B70BD80EC100B15
:103210009FED060B80ED100B80ED160B80ED180B6B
:1032200080ED1A0B80ED1C0B7047000000000000C1
:103230000000000000B52DED0E8B9FEDFE9BB0EE63
:10324000497AF0EE697A9FEDFD8BB0EE494AF0EED7
:10325000694AB0EE486AF0EE686AB0EE485AF0EE9D
:10326000685AB0EE483AF0EE683AB0EE482AF0EE0E
:10327000682AB0EE481AF0EE681A9FEDF2ABB0EE95
:103280004A0AF0EE6A0AF148FFF7C0FFEF48B0EED5
:10329000497AF0EE697AB0EE486AF0EE686AB0EE0C
:1032A000485AF0EE685AB0EE494AF0EE694AB0EE7C
:1032B000483AF0EE683AB0EE482AF0EE682AB0EEEE
:1032C000481AF0EE681AB0EE4A0AF0EE6A0AA03028
:1032D000FFF79CFFB0EE497AF0EE697AB0EE486AEB
:1032E000F0EE686AB0EE485AF0EE685AB0EE494A1D
:1032F000F0EE694AB0EE483AF0EE683AB0EE482A8D
:10330000F0EE682AB0EE481AF0EE681AB0EE4A0AFB
:10331000F0EE6A0ACE48FFF779FFCD48B0EE497A61
:10332000F0EE697AB0EE486AF0EE686AB0EE485A9C
:10333000F0EE685AB0EE494AF0EE694AB0EE483A0B
:10334000F0EE683AB0EE482AF0EE682AB0EE481A7D
:10335000F0EE681AB0EE4A0AF0EE6A0AA030FFF703
:1033600055FF9FEDBCABB0EE486AF0EE686AB0EE78
:103370004A7AF0EE6A7AB0EE485AF0EE685AB0EE49
:103380004A4AF0EE6A4AB0EE483AF0EE683AB0EED9
:10339000482AF0EE682A9FEDB11B9FEDB2CBB348EF
:1033A000B0EE4C0AF0EE6C0AFFF730FFB0EE4A7A4E
:1033B000F0EE6A7AB0EE486AF0EE686AB0EE485A0B
:1033C000F0EE685AB0EE4A4AF0EE6A4AB0EE483A79
:1033D000F0EE683AB0EE482AF0EE682A9FEDA41BA2
:1033E000A248B0EE4C0AF0EE6C0AA030FFF70EFFD8
:1033F0009FEDA1ABB0EE486AF0EE686AB0EE4A7A93
:10340000F0EE6A7AB0EE485AF0EE685AB0EE494AE9
:10341000F0EE694AB0EE483AF0EE683AB0EE482A6B
:10342000F0EE682AB0EE481AF0EE681A9FED94BBF1
:103430009548B0EE4B0AF0EE6B0AFFF7E7FE9248B4
:10344000B0EE4A7AF0EE6A7AB0EE486AF0EE686A58
:10345000B0EE485AF0EE685AB0EE494AF0EE694ACA
:10346000B0EE483AF0EE683AB0EE482AF0EE682A3C
:10347000B0EE481AF0EE681AB0EE4B0AF0EE6B0AA6
:10348000A030FFF7C3FEB0EE4A7AF0EE6A7AB0EEF3
:10349000486AF0EE686AB0EE485AF0EE685AB0EE4C
:1034A000494AF0EE694AB0EE483AF0EE683AB0EEBA
:1034B000482AF0EE682AB0EE481AF0EE681AB0EE2C
:1034C0004B0AF0EE6B0A7148FFF7A0FE6F48B0EEB2
:1034D0004A7AF0EE6A7AB0EE486AF0EE686AB0EEC8
:1034E000485AF0EE685AB0EE494AF0EE694AB0EE3A
:1034F000483AF0EE683AB0EE482AF0EE682AB0EEAC
:10350000481AF0EE681AB0EE4B0AF0EE6B0AA030E3
:10351000FFF77CFE9FED5E7BB0EE486AF0EE686AD6
:103520009FED5D5B9FED5E4BB0EE483AF0EE683A82
:10353000B0EE482AF0EE682AB0EE481AF0EE681AAB
:103540009FED590B5A48FFF761FE9FED5A7BB0EE95
:10355000486AF0EE686AB0EE485AF0EE685A9FED9D
:1035600057ABB0EE483AF0EE683AB0EE4A4AF0EEA9
:103570006A4AB0EE482AF0EE682A9FED521B9FED92
:10358000530B5448FFF742FE9FED537BB0EE486A61
:10359000F0EE686AB0EE485AF0EE685A9FED50DBE4
:1035A000B0EE483AF0EE683AB0EE4D4AF0EE6D4AB1
:1035B000B0EE482AF0EE682A9FED4B1B9FED4C0BB6
:1035C0004448A030FFF722FE9FED4BEBB0EE486A77
:1035D000F0EE686AB0EE4E7AF0EE6E7AB0EE485ACF
:1035E000F0EE685A9FED46BBB0EE483AF0EE683A0E
:1035F000B0EE4B4AF0EE6B4A9FED432B9FED441B20
:103600009FED450B4648FFF701FEB0EE4B7AF0EE1A
:103610006B7AB0EE486AF0EE686AB0EE485AF0EEA7
:10362000685AB0EE4A4AF0EE6A4AB0EE483AF0EE16
:10363000683A77E0000000000088C3400000000006
:10364000000000000000000000001440E8420020DC
:1036500028440020000000000064C940F168E388AD
:10366000B5F8143F0000000000002240684500202B
:10367000691D554D10750F3F00000000005CBC40F7
:103680000000000000001840A84B0020E84C00207B
:103690000000000040CCF340000000000000244087
:1036A0000000000080842E41000000000000F43F74
:1036B000284E0020000000FC83D797410000000046
:1036C000004CDD400000000000003E400000000013
:1036D00000406040A8460020000000007E842E418B
:1036E000000000000040CF4000000000000000404B
:1036F0000000000000002E40000000000058BB4009
:10370000000000000094E1409A9999999999A93F85
:10371000333333333333C33F9A9999999999E93FB6
:10372000E8470020B0EE482AF0EE682A9FED461BDD
:103730009FED470B4848FFF769FD4748B0EE4B7ACD
:10374000F0EE6B7AB0EE486AF0EE686AB0EE485A76
:10375000F0EE685AB0EE4D4AF0EE6D4AB0EE483ADF
:10376000F0EE683AB0EE482AF0EE682A9FED3B1B77
:103770009FED3C0BA030FFF749FDB0EE4E7AF0EE26
:103780006E7AB0EE486AF0EE686AB0EE485AF0EE33
:10379000685AB0EE4B4AF0EE6B4AB0EE483AF0EEA3
:1037A000683AB0EE482AF0EE682A9FED301B9FED94
:1037B000310B3248FFF72AFD9FED317BB0EE486AAE
:1037C000F0EE686AB0EE485AF0EE685AB0EE494A38
:1037D000F0EE694AB0EE483AF0EE683AB0EE482AA8
:1037E000F0EE682AB0EE481AF0EE681AB0EE4C0A15
:1037F000F0EE6C0A2448FFF709FDB0EE4A7AF0EECD
:103800006A7AB0EE486AF0EE686AB0EE485AF0EEB6
:10381000685AB0EE4A4AF0EE6A4AB0EE483AF0EE24
:10382000683AB0EE482AF0EE682AB0EE481AF0EE98
:10383000681ABDEC0E8B11489FED140BA0305DF89B
:1038400004EBFFF7E3BC000000000000000014C020
:1038500000000000008049C0884800209A9999998A
:103860009999B93F52B81E85EB51E03F9A999999C1
:103870009999B9BF000000000000F0BFC8490020BE
:10388000000080FF64CDCD41084B0020CDCCCCCCD6
:10389000CCCCFC3F012000F081FCFBE7012000F0D4
:1038A0007DFC00F0F5FAF9E74FF4FA70FDF7BCFB88
:1038B000042000F073FC00F0FFFAF9E7082000F0A4
:1038C0006DFC00F00BFBF9E710B5502080F3118878
:1038D000BFF34F8FBFF36F8F01F020F918B1044988
:1038E0004FF080500860002080F3118810BD000068
:1038F00004ED00E030B593B030216846FCF7CFFD11
:1039000014210CA8FCF7CBFD20480025016841F0EC
:1039100080510160006800F0805011901C480168DF
:1039200041F4404101600068022400F440401190DD
:1039300001200090000401908001CDE9064006209E
:103940000890B420CDE9090404200B906846FEF7E6
:1039500099F908B172B6FEE7FEF750F808B172B6F1
:10396000FEE70CA90F2081E831004FF4A0500F9022
:103970004FF48050109005210CA8FEF777F800282E
:1039800001D072B6FEE713B030BD000040380240EF
:10399000007000400248016841F470010160704706
:1039A00088ED00E00148FEF78EBC000050050020C5
:1039B0000148FEF788BC00001C0400200148FEF707
:1039C00082BC000064040020F0B50268254C264D3E
:1039D000264E274F274B4FF0804CA04209D0604520
:1039E00007D0A84205D0B04203D0B84201D09842D7
:1039F00004D122F0700E4A6842EA0E02A0421BD0A7
:103A0000604519D0A84217D0B04215D0B84213D0A3
:103A1000984211D0184DA8420ED0184DA8420BD094
:103A2000174DA84208D0174DA84205D0164DA84200
:103A300002D0164DA84203D122F44075CA682A4329
:103A40004D6922F080022A4302608A68C2620A68D5
:103A50008262A04201D0984201D10969016301212B
:103A60004161F0BD0000014000040040000800403A
:103A7000000C0040000401400040014000440140AF
:103A80000048014000180040001C00400020004099
:103A900010B501F01F030121046A99408C430462B0
:103AA000016A9A401143016210BD0000F0B5026A3C
:103AB00022F001020262036A42688469124E24F015
:103AC00073050C682C4323F002058B682B430D4DC6
:103AD000A84201D0B04205D123F00807CB683B4390
:103AE00023F00403A84201D0B04205D14D6922F46D
:103AF000407215438A692A43426084614968416380
:103B00000362F0BD0000014000040140F0B5026A0C
:103B100022F010020262026A436884690D6824F48C
:103B2000E64444EA05248D6822F0200242EA0512A8
:103B30000F4D104EA84201D0B04206D1CF6822F0FE
:103B4000800242EA071222F04002A84201D0B042AD
:103B500007D14D6923F4406343EA85038D6943EA45
:103B6000850343608461496881630262F0BD00009F
:103B70000000014000040140F0B5026A22F48072A6
:103B80000262026A4368C46922F4007224F0730579
:103B90000C68124E2C438D6842EA05220E4DA84255
:103BA00001D0B04206D1CF6822F4006242EA072277
:103BB00022F48062A84201D0B04207D14D6923F4BB
:103BC000405343EA05138D6943EA05134360C4611A
:103BD0004968C1630262F0BD000001400004014079
:103BE00030B5026A22F480520262046A4268C369F4
:103BF0000D6823F4E64343EA05238D6824F400545A
:103C000044EA0534084DA84202D0084DA84204D128
:103C10004D6922F4804242EA85124260C3614968DC
:103C20000164046230BD0000000001400004014056
:103C300070B5044600680169E26821F440511143FF
:103C400001612169A068E269084361691143084381
:103C50002168CA6849F20C639A430243CA6020682B
:103C60004169A26921F440711143416131492068E1
:103C7000884202D03049884202D1FDF7C1FF01E0FD
:103C8000FDF7AEFFE2690023192164253226B2F563
:103C9000004F626828D0A0FB0101930F9200FCF74F
:103CA00055FB0146B0FBF5F06FF01802504301EBF5
:103CB000800006EB0010B0FBF5F000F0F002B1FB65
:103CC000F5F002EB0012B1FBF5F06FF0180358436A
:103CD00001EB800006EB0010B0FBF5F000F00F00E8
:103CE00021681044886070BDA0FB010192185B41FF
:103CF000FCF72CFB0146B0FBF5F00201B1FBF5F03F
:103D00006FF01803584301EB800006EBC000B0FBD6
:103D1000F5F000F0F80002EB4002B1FBF5F058437B
:103D200001EB800006EBC000B0FBF5F000F00700EF
:103D3000D6E700000010014000140140FEE709072B
:103D4000090E002804DB00F1E02080F80014704721
:103D500000F00F0000F1E02080F8141D704770475C
:103D600000B58BB000200121CDE90601089100903B
:103D70000190029003900590049069460548FCF775
:103D8000EDFC0448FCF7E2FF02210248FCF766FC68
:103D90000BB000BD480300200349024809680068D1
:103DA00008647047AC0000201C040020204830B597
:103DB00003464269D3E90114DB687AB1056A2944F4
:103DC0000162416A21444162816A19448162521C44
:103DD000002318494261042A04D016E08362C0E936
:103DE0000814F4E7026AD41702EB947292100A6086
:103DF000426AD41702EB947292104A60826AD41716
:103E000002EB947292108A604361094C82692469C2
:103E10000AB1C56A2C44521CC4628261642A05D16D
:103E20002246642492FBF4F2CA60836130BD000034
:103E3000C0000020C84E00200B4A0C48D168C16069
:103E40000B48C068D06000280BD1012909D109486E
:103E500009490268C869012A04D0002A01D1401E1C
:103E6000C8617047401CFBE7E84E0020D84E002098
:103E7000C84E0020A8000020C000002000F0030071
:103E8000024900EB800001EB4000704788420020AF
:103E900010B500F0EDFBFFF789FFFFF7CDFF0548F8
:103EA000F7EE000A90ED000A30EE200A80ED000ADD
:103EB00010BD0000C000002010B50021084600F031
:103EC00011F90548F7EE000A90ED010A30EE200ADC
:103ED00080ED010A10BD00009400002010B5FFF72E
:103EE0005BFF00F0BBFB0548F7EE000A90ED000A0F
:103EF00030EE200A80ED000A10BD0000BC0000205A
:103F0000704700000EB50A238DE80E00024601231B
:103F10001C210248FDF7E8FA0EBD000070030020E6
:103F20001FB500218DF80C100A23012203A98DE88A
:103F30000E00134602461C210348FDF7D5FA9DF8F2
:103F40000C0004B010BD00007003002003B583B066
:103F50000A23012204A98DE80E00134602461C2103
:103F60000248FDF7BDFB05B000BD00007003002056
:103F7000012204210148FDF7A8B900000010024009
:103F8000002204210148FDF7A0B900000010024002
:103F90007047FDF749B870B54FF0E02300215C6928
:103FA00000EBC0009A69C50098699042FCD002D22B
:103FB000A2EB000202E0A4EB0006324411440246E8
:103FC000A942F1D370BD00002DE9F0410024FFF7B4
:103FD00097FFFFF7DDFFFFF7D3FF3220FFF7D9FF91
:103FE000FFF7C6FF3220FFF7D4FF0020FFF798FF4E
:103FF000102802D04020BDE8F081104D04EB4406AB
:104000007719A85D7978FFF7A1FF9620FFF7C3FF26
:10401000A85DFFF785FF06469620FFF7BCFF78787E
:10402000B04204D004EB440028448078E3E7641CE9
:10403000E4B2042CE2D30020DDE700007454000851
:104040001CB50446062269460320FFF75BFFBDF955
:10405000000000EE100AF8EEC00A9FED0D0A60EEB7
:10406000800AC4ED000ABDF9020000EE900AF8EEE5
:10407000E00A60EE800AC4ED010ABDF9040000EE1A
:10408000900AF8EEE00A20EE800A84ED020A1CBDD8
:104090009A99993EFDF702FCFFF72CFCFEF7FCFD18
:1040A000FEF7B0FDFEF78CFDFEF76CFFFEF748FF54
:1040B000FEF706FFFEF7B4FEFEF7E0FEFFF750FE48
:1040C000FFF7B8F8FFF780FF00F0EEFAFEF7B0FD5B
:1040D00000F06BF8FEE701460020842900D0C81CE0
:1040E0007047000070B52A4C2DED028B22891044D8
:1040F00020808818404260800020FFF7BFFE054600
:10410000E060B4F9000000F0F2FE41EC180BB5F9E4
:10411000020000F0ECFE41EC100B0121B0EE481A59
:10412000F0EE681A1B48FEF74DFF0120FFF7A6FED0
:1041300005462061B4F9020000F0D9FE41EC180BED
:10414000B5F9020000F0D3FE41EC100B0121B0EEF6
:10415000481AF0EE681A1048FEF734FF0E4890ED4A
:10416000100B51EC100B00F093FE04B2094890EDD7
:10417000100B51EC100B00F08BFEBDEC028B2146B6
:10418000BDE87040002300B21A46FCF7F9B9000000
:1041900094000020E84200208843002010B500B9B8
:1041A000012000F057FB002010BD10B500F078FB97
:1041B000002010BD7FB50D4604464169B0F90800E6
:1041C00081B1A16971B1FFF786FFD4E905128DE8CD
:1041D0000700D4E900102B46226900F074FC03901C
:1041E00004B070BDFFF777FF03A9CDE90001208A75
:1041F0002B4682B2D4E9001000F038FC012801D02F
:104200000020EDE70398EBE72DE9F041184C0F464D
:104210000546E6682068001D00F054FA38B92068A9
:1042200090F82C1001208840216981432161681C8D
:1042300007D137B12168BDE8F0410E48091D00F0F3
:1042400085BA20683544B5424560216805D2A06B27
:10425000BDE8F041091D00F061BA606B091D00F076
:104260005DFAA06A854200D2A562BDE8F081000037
:1042700020000020740600202DE9F041054600F0E2
:1042800071FA2E4CA068401CA06020682C4F10B121
:10429000606940B32DE02560A068012829D100267F
:1042A00006EB860007EB800000F02AFA761C072E4A
:1042B000F6D323488C3000F023FA2148A03000F0D8
:1042C0001FFA1F48B43000F01BFA1D48C83000F038
:1042D00017FA1B48DC3000F013FA19488C30606381
:1042E0001430A06305E02068E96AC06A884200D8FB
:1042F0002560606A401C6062E96A0120226988408A
:104300001043206101EB810007EB8000291D00F0C4
:104310001DFA00F047FA606900280CD02068E96AAD
:10432000C06A884207D207494FF080500860BFF347
:104330004F8FBFF36F8FBDE8F08100002000002099
:104340009805002004ED00E010B5044690F85100F7
:1043500058B101280CD002280FD0502080F31188CA
:10436000BFF34F8FBFF36F8FFEE7206B00F02EFA85
:104370002046BDE8104000F029BA10BD10484FF4A7
:104380007051420706D0C01D0D4920F00700411AA8
:10439000C1F570510B4A00230144C2E900030839FA
:1043A000183A21F0070111604B600B600B1AC0E94D
:1043B000001393604FF0004053605061704700005D
:1043C0008806002074000020144E154CA6F1C80782
:1043D0004FF08058DFF84C9012E000BF00F0C2F9B7
:1043E000F068C568281D00F06DF9A068401EA06047
:1043F0006068401E606000F0D5F92846FFF7A4FF12
:1044000060680028EAD138680128F9D9C9F8008025
:10441000BFF34F8FBFF36F8FF2E7000060060020FD
:104420002000002004ED00E02DE9F0479A46DDE988
:10443000098481466FF00303206B03EB8202104472
:10444000089E20F00707780707D0502080F31188D6
:10445000BFF34F8FBFF36F8FFEE7002561B10020E0
:1044600023180A5C83F834200A5C12B1401C10281F
:10447000F6D384F8435001E084F83450072E00D37B
:104480000626E662C4E91165201D00F044F904F136
:10449000180000F040F92461C6F107006462A061D1
:1044A000E56484F8505052464946384600F0C0F85A
:1044B0002060B8F1000F01D0C8F80040BDE8F087D7
:1044C00030B5114900E011460A688242FBD34B68BF
:1044D0005C18844203D14068184448600846436829
:1044E0001C18944209D1084C183C2468A24209D0F7
:1044F00052681A4442600A6812680260814200D021
:10450000086030BD0460F9E7740000200648416B84
:10451000096829B1416BC968C968496881627047F7
:104520004FF0FF31FAE70000200000200848406803
:10453000401C4FF0500080F3118804D0BFF34F8F20
:10454000BFF36F8FFEE7BFF34F8FBFF36F8FFEE7B1
:104550007C0000202DE9F0410546002700F0D6F947
:10456000324E306808B9FFF709FF706905424ED135
:10457000C5B3083568070ED005F00700C0F1080084
:104580000544680707D0502080F31188BFF34F8F90
:10459000BFF36F8FFEE72DB37068854237D823488D
:1045A000183001460C6801E020460C466168A942BB
:1045B00002D221680029F7D131688C4227D00768E0
:1045C0002168016060680837411B10290FD9601904
:1045D000420708D0502080F31188BFF34F8FBFF3FC
:1045E0006F8FFEE713E041606560FFF769FF616868
:1045F0007068401A7060B268904200D2B060706912
:1046000001430020C4E90001F068401CF06000F0A4
:10461000EBFA780707D0502080F31188BFF34F8F53
:10462000BFF36F8FFEE73846BDE8F0815C000020E5
:1046300010B5031F4FF080741C601B1F21F0010197
:104640001960191F044B0B6014390A60091F6FF0C1
:10465000020244380A6010BD2D4500080349024893
:1046600009688068C8637047AC0000201C04002003
:1046700070B50B4D04212846FCF722FE094C802121
:1046800060602846FCF71CFEA06040212846FCF72D
:1046900017FEE06020212846FCF712FE206170BD65
:1046A00000200240C000002010B50C210448FDF796
:1046B000ADFFBDE8104008210148FDF7A7BF00008D
:1046C0001C040020D0E9013201699A60D0E901237D
:1046D0005A604A68824201D182684A6000220261BF
:1046E0000868401E0860086870470000034B0360BC
:1046F00003F154000860802010607047F40000202F
:1047000000F108014FF0FF32C0E90112C160016100
:1047100000210160704700210161704730B50B68CE
:104720005A1C02D000F1080202E0026904E02246AD
:10473000546825689D42FAD953684B6099608A6035
:10474000516008610168491C016030BD42684A60DF
:1047500093688B6093685960916008610168491C97
:1047600001607047502080F31188BFF34F8FBFF373
:104770006F8F0A494868401C486001280CD10848DE
:10478000006810F0FF0F07D0502080F31188BFF3AE
:104790004F8FBFF36F8FFEE7704700007C00002053
:1047A00004ED00E00849486828B1401E486001D186
:1047B00080F311887047502080F31188BFF34F8F2A
:1047C000BFF36F8FFEE700007C00002070B500286B
:1047D0002AD0164DA0F1080460686969084207D123
:1047E000502080F31188BFF34F8FBFF36F8FFEE728
:1047F00022683AB1502080F31188BFF34F8FBFF386
:104800006F8FFEE78843606000F080F86068696839
:10481000084468602046FFF753FE2869401C286161
:10482000BDE8704000F0E0B970BD00005C00002001
:104830004FF0E02000210161816105494FF47A7257
:104840000968B1FBF2F1491E41610721016170471E
:104850001C00002010B5020014D00F48006B38B1C6
:10486000502080F31188BFF34F8FBFF36F8FFEE7A7
:1048700000F04CF800211046FFF7C6FC00F0B4F938
:10488000002807D105494FF080500860BFF34F8FD3
:10489000BFF36F8F10BD00002000002004ED00E08A
:1048A00010B586B00024039405AA04A903A80494B3
:1048B000FFF71CFFDDE903010094CDE9011000239F
:1048C0000EA11048059A00F0FEF80F490028C862B2
:1048D00011D0502080F31188BFF34F8FBFF36F8F3B
:1048E0004FF0FF30886201204861CC6006B0BDE81F
:1048F000104000F041B806B010BD000049444C45DE
:1049000000000000C9430008200000200248016B9D
:10491000491C016370470000200000201448016B0F
:1049200011B10121C16170470021C1610169B1FA72
:1049300081F1C1F11F0101EB81020E4951F82230D2
:104940006BB101EB820101F108034A6852684A60C9
:104950009A4201D152684A60D16801607047502084
:1049600080F31188BFF34F8FBFF36F8FFEE7000016
:1049700020000020980500201CB537480168374A00
:10498000914207D1502080F31188BFF34F8FBFF3BE
:104990006F8FFEE700683149491E884207D15020D9
:1049A00080F31188BFF34F8FBFF36F8FFEE72C4961
:1049B00008780190FF20087008788DF800009DF8B5
:1049C00000009DF8002000F0F000904207D0502039
:1049D00080F31188BFF34F8FBFF36F8FFEE79DF811
:1049E0000000204C00F0500020700720A06005E07F
:1049F0009DF8002052008DF80020401E9DF80020F8
:104A00001206F5D4A060032807D0502080F3118847
:104A1000BFF34F8FBFF36F8FFEE74FF44070A0607E
:104A2000019808700C482030016841F47001016061
:104A3000016841F070410160FFF7FAFE00206060FC
:104A4000FBF728FC0848016841F040410160FBF792
:104A50000DFC00201CBD000000ED00E071C20F4104
:104A600000E400E07C00002034EF00E02DE9FF5F6F
:104A70008346DDE90E87994616468A469000FFF781
:104A800069FD05001CD05420FFF764FD040014D01C
:104A90000020256384F85100CDE90240CDE900876C
:104AA0004B46324651465846FFF7BEFC2046FFF7BC
:104AB000E3FB012004B0BDE8F09F2846FFF786FE27
:104AC0004FF0FF30F6E7F0B585B0DDE90B640A9DE5
:104AD000A6B1DCB1542700972663022684F8516002
:104AE000002604AFCDE90246CDE90057FFF79CFC54
:104AF0002046FFF7C1FB049805B0F0BD502080F3BD
:104B00001188BFF34F8FBFF36F8FFEE7502080F304
:104B10001188BFF34F8FBFF36F8FFEE72DE9F04190
:104B20002F4C0026206B28B1A069401CA0613046A4
:104B3000BDE8F081E5686D1CE56013D1606B00682D
:104B400038B1502080F31188BFF34F8FBFF36F8FC0
:104B5000FEE7606BA16B6163A063206A401C20626A
:104B6000FFF7D4FCA06ADFF87C80854209D3606B34
:104B70000068A0B1606BC068C7687868854211D2D0
:104B8000A0622068C06A00EB800158F8210001286B
:104B900000D90126E0690028C9D00126C7E74FF0F7
:104BA000FF30EDE7381DFFF78DFDB86A18B107F14A
:104BB0001800FFF787FDF96A012022698840104339
:104BC000206101EB810108EB8100391DFFF7BEFD7B
:104BD000F86A2168C96A8842C9D30126C7E700007C
:104BE00020000020980500202DE9F0472C4D0024DE
:104BF0002746286B38B1FFF7B5FD286B401E2863A8
:104C0000286B40B146E0502080F31188BFF34F8FEE
:104C1000BFF36F8FFEE7A968224E0120D1B3A6F142
:104C2000B40980463068E8B1F068C46804F118003F
:104C3000FFF748FD201DFFF745FDE06A2A6908FAE5
:104C400000F11143296100EB800109EB8100211D76
:104C5000FFF77CFDE06A2968C96A8842E2D3C5F89B
:104C60001C80DFE70CB1FFF751FCAC6944B146464C
:104C7000FFF754FF00B1EE61641EF9D10020A86176
:104C8000E86938B10849012738070860BFF34F8F3A
:104C9000BFF36F8FFFF786FD3846BDE8F087000051
:104CA000200000204C06002004ED00E081F00041CF
:104CB000704780F00040704721F00041704720F0BD
:104CC0000040704721F00042A2F16052B2F5801F0F
:104CD00001F0004328BFD2F17F6C0BD95FEA001CC2
:104CE00043EAC20242EB507018BF704728BF20F061
:104CF00001007047B2F5801FBCBF184670474FEAED
:104D0000410C1CF5001F02D2084600F066BB70B5CE
:104D100000F0EAF900000089FFF7F6BF4FF000400D
:104D2000A0F580007047000010B591EA030F48BF5E
:104D300083F0004300F16A82841A71EB030C05D200
:104D4000121943EB0C03001B61EB0C01DFF824E1AB
:104D50004FEA1154A4EB135C1EEA430F18BF9EEAFE
:104D6000445F73D023EA0E03DCF1200E21EA0451E4
:104D700043F4801332D322FA0CFE10EB0E0023FA18
:104D80000CFE41EB0E01CCF1200E03FA0EFE10EBEF
:104D90000E0051F10001B1F5801FCCF1200E32D28E
:104DA00001EB045112FA0EF2BDE8104058BF7047F3
:104DB000401C38BF5FEA420218BF7047002814BF8A
:104DC00020F0010041F100014FEA410313F5001FFB
:104DD00038BF7047A1F1C04100F0D4B9012A43EBBC
:104DE0000302ACF1200CDCF11F0E32BF4FF0000EBD
:104DF00023FA0CF310EB030041EB0451B4EB115F09
:104E0000D0D0A1EB045101F5801149085FEA3000D0
:104E100001EB04510ED350F1000038BF12FA0EFE20
:104E200008D1BDE81040C9E7401C38BF5FEA420224
:104E3000CAD1C3E7BDE810404FEA410313F5001F94
:104E400038BF7047A1F1C04100F09CB99EEA445FB1
:104E500008D011EA5E0FBDE8104004BF01F0004128
:104E600000207047BDE8104070B500F03DF900BF6C
:104E700064FBBE3E0000E0FF491058BFC1F1404155
:104E80005B1058BFC3F140438B42EFF30080704783
:104E90004FEA41034FEA5353A3F58063D3F11E0356
:104EA000C8BFD3F1210C0CDD4FF0004242EAC12211
:104EB00042EA505232FA03FC8CEAE17CACEBE1703E
:104EC0007047102BC4BF0020704703F5787CBCF1FD
:104ED000FF3F04D06FF0004282EA2100704770B5B6
:104EE00000F002F94992248000207047F2E710F0A8
:104EF000004248BF4042B0FA80F310FA03F10AD0F2
:104F0000C3F11D0303F580634FEA415002EB0352E6
:104F100002EBD12170474FF00000704751EA030CBB
:104F200017D41CF5801F58BFBCF5801F00F1068008
:104F3000994218BF704708BF9042704707D711F5D4
:104F4000801F58BF13F5801F19D4994270478942BA
:104F500070471CF5801F08D5BCF5801FF7D58B4224
:104F600018BF704708BF824270474FF4001C1CEB0B
:104F7000410F38BF1CEB430F01D28B42704770B515
:104F800000F0B2F8922449004FF000514FF08053E6
:104F9000FFF772BFDFF848C170B51CEA111E1EBFD3
:104FA0001CEA13159EEA0C0F95EA0C0F00F06F80B7
:104FB00081EA030423EA4C134EEAD47E21EA4C1121
:104FC00041F4801143F48013AE44A1FB024CA0FBDA
:104FD0000365AEF17F7E361955EB0C05A1FB034C42
:104FE0004CF10003A0FB021C16EB0C06654153F1CB
:104FF0000003094218BF46F0010613F4007F0BD1ED
:105000004FEA03314FEA0530340341EA155140EAD3
:1050100016506FF003020AE04FEAC3214FEAC520A1
:10502000F40241EA555140EA56506FF0020202EB99
:105030002E4201EB025585EACE710AD05FEA440C9C
:1050400018BF24F0004450F1000041F1000120EAB3
:10505000D47040F2FE7C624500D270BDA84214BFFD
:105060004FF080444FF04044002E08BF0024BEF1B2
:10507000806FA8BFA1F1C041BDE8704080F282807E
:105080004FF0000001F1C04101F0004170479EEA7D
:105090000C0F0CEA131518BF95EA0C0F06D04FF051
:1050A000000081EA030E0EF0004170BD00F01CF814
:1050B0008900013E00F007B800F009B84FEA430C40
:1050C0005FEA5C5C08D081EA030100F05BB84FEA5C
:1050D000410C5FEA5C5CF6D14FF00000014970477B
:1050E0000000FF070000F87F0EF1020E2EF0030E05
:1050F0005EF8046B364205D4012A43EB030515F52F
:10510000001F12D8012841EB010C1CF5001F0CD820
:105110000ED14FEAD17C15F5001F0CEB4C0C0CF1B5
:10512000020C08BF4CEBD37C04E04FF0080C01E00C
:105130004FEAD37C0CEB4C0526FA05F606F0070681
:10514000B6F1040C06D20EEB860CBDE870404CF0B4
:10515000010C6047DFE80CF0090B02024FF0004140
:105160004FF00000A1F5002170BD1946104601283E
:1051700051EB010418BFD4F5001484BF002001F0E6
:10518000004170BD0808A0F500114FEA31017047D9
:1051900053EA010C17D41CF5801F58BFBCF5801FC3
:1051A00000F106808B4218BF704708BF82427047EB
:1051B00007D713F5801F58BF11F5801F19D48B42F4
:1051C00070479B4270471CF5801F08D5BCF5801FB7
:1051D000F7D5994218BF704708BF904270474FF407
:1051E000001C1CEB430F38BF1CEB410F01D299424E
:1051F00070470FB40CBC03BCFFF7C1BE10B591EAF9
:10520000030F48BF83F000433FF596AD841A71EB5E
:10521000030C07D212198CF0004C43EB0C03001B5B
:1052200061EB0C01DFF8A4E14FEA1154A4EB135C2D
:105230001EEA430F18BF9EEA445F00F0B08023EAE5
:105240006E03524221EA0451C3EB6E0338BF5B1E6A
:10525000DCF1200E25D322FA0CFE10EB0E0043FAEF
:105260000CFE41EB0E01CCF1200E03FA0EFE10EB0A
:105270000E0051F10001CCF1200E29D412FA0EF2E9
:1052800001EB0451BDE8104058BF7047401C1CBFE3
:10529000B2F1004F704700280CBF491C20F00100FC
:1052A000704712EB020E43EB030218BF4FF0010EE2
:1052B0004EEA4202ACF1200CDCF11E0E54D943FA46
:1052C0000CFE10EB0E0051F1FF31CCF11E0ED5D5C6
:1052D0000EF1010E12FA0EFE404141EB010101EB0D
:1052E000445C5FEA5C5C10D910EBDE7001EB0451AA
:1052F00038BFBEF1004FBDE8104018BF704700280E
:105300000CBF491C20F00100704730D24FEAD42C6A
:1053100011F5001124F400641BD0B1FA81F20B3AAC
:10532000A41AA41ED2F12003914030FA03F31943CA
:10533000904001EBCC71002C01EB0451BDE8104012
:10534000A8BF704701F1C0414FF0000001F00041DB
:105350007047B0FA80F310FA03F100D110BDE41ADF
:10536000173C4805C90AE4E701EB045110BD491098
:1053700001EB0451BDE810404FEA300002E04FF06D
:10538000000170474A0008BF0042F8D0B2F5001F84
:1053900028BF704701F000414FF0000070479EEABF
:1053A000445F07D011EA5E0FBDE8104004BF002142
:1053B00000207047BDE8104070B5FFF795FE00BFB4
:1053C00040DFF63E83F00041104670470000E0FFEA
:1053D0004FF04070E1EE100A7047FF2141EAD050D3
:1053E000C005704780540008953800080000000090
:1053F000000000008000000000000000000000002D
:105400008C5400089D3800080300000000000000D4
:10541000800000000000000000000000A854000808
:10542000A9380008FDFF0000000000008000000017
:1054300000000000000000009C540008BD38000877
:10544000FDFF0000000000008000000000000000E0
:1054500000000000000610160006101600000000F4
:105460000000000001020304060708090000000014
:10547000010203040B080141090242C0030A0B04A4
:1054800064656661756C745461736B006765746400
:105490006174615F7461736B0000000068616E6429
:1054A0005F7461736B000000676F5F7461736B0002
:1054B000D054000800000020F4000000E8010008BB
:1054C000C4550008F40000207454000004020008D1
:1054D00000000000000000000000000000000000CC
:1054E0000100000010000000000000000024F40093
:1054F00000000000000000000000000000000000AC
:10550000000000000000000000000000000000009B
:10551000000000000000000000000000000000008B
:10552000000000000000000000000000000000007B
:10553000000000000000000000000000000000006B
:10554000000000000000000000000000000000005B
:10555000AAAAAAAA000000000000000000000000A3
:10556000000000000000000000000000080700002C
:10557000000000000000000000000000BC0200006D
:1055800008070000EE0200006E05000000000000A9
:10559000000000000000000000000000000000000B
:1055A00000000000000000000000000000000000FB
:1055B00000000000000000000000000000000000EB
:0455C00000000000E7
:04000005080001AD41
:00000001FF
